{
    "_format": "hh-sol-artifact-1",
    "contractName": "russianRoulette",
    "sourceName": "contracts/russianRoulette.sol",
    "abi": [
        {
            "inputs": [],
            "stateMutability": "nonpayable",
            "type": "constructor"
        },
        {
            "anonymous": false,
            "inputs": [
                {
                    "indexed": false,
                    "internalType": "address",
                    "name": "winner",
                    "type": "address"
                }
            ],
            "name": "GameFinished",
            "type": "event"
        },
        {
            "anonymous": false,
            "inputs": [
                {
                    "indexed": false,
                    "internalType": "bool",
                    "name": "",
                    "type": "bool"
                }
            ],
            "name": "GameStarted",
            "type": "event"
        },
        {
            "anonymous": false,
            "inputs": [
                {
                    "indexed": false,
                    "internalType": "address",
                    "name": "player",
                    "type": "address"
                }
            ],
            "name": "PlayerJoined",
            "type": "event"
        },
        {
            "anonymous": false,
            "inputs": [
                {
                    "indexed": false,
                    "internalType": "address",
                    "name": "player",
                    "type": "address"
                },
                {
                    "indexed": false,
                    "internalType": "bool",
                    "name": "survived",
                    "type": "bool"
                }
            ],
            "name": "RoundResult",
            "type": "event"
        },
        {
            "inputs": [],
            "name": "gameStarted",
            "outputs": [
                {
                    "internalType": "bool",
                    "name": "",
                    "type": "bool"
                }
            ],
            "stateMutability": "view",
            "type": "function"
        },
        {
            "inputs": [],
            "name": "joinGame",
            "outputs": [],
            "stateMutability": "payable",
            "type": "function"
        },
        {
            "inputs": [],
            "name": "nextRoundBlock",
            "outputs": [
                {
                    "internalType": "uint256",
                    "name": "",
                    "type": "uint256"
                }
            ],
            "stateMutability": "view",
            "type": "function"
        },
        {
            "inputs": [],
            "name": "owner",
            "outputs": [
                {
                    "internalType": "address payable",
                    "name": "",
                    "type": "address"
                }
            ],
            "stateMutability": "view",
            "type": "function"
        },
        {
            "inputs": [],
            "name": "ownerPool",
            "outputs": [
                {
                    "internalType": "uint256",
                    "name": "",
                    "type": "uint256"
                }
            ],
            "stateMutability": "view",
            "type": "function"
        },
        {
            "inputs": [],
            "name": "ownerWithdraw",
            "outputs": [],
            "stateMutability": "nonpayable",
            "type": "function"
        },
        {
            "inputs": [],
            "name": "playerCount",
            "outputs": [
                {
                    "internalType": "uint8",
                    "name": "",
                    "type": "uint8"
                }
            ],
            "stateMutability": "view",
            "type": "function"
        },
        {
            "inputs": [
                {
                    "internalType": "uint256",
                    "name": "",
                    "type": "uint256"
                }
            ],
            "name": "players",
            "outputs": [
                {
                    "internalType": "address payable",
                    "name": "",
                    "type": "address"
                }
            ],
            "stateMutability": "view",
            "type": "function"
        },
        {
            "inputs": [],
            "name": "startGame",
            "outputs": [],
            "stateMutability": "nonpayable",
            "type": "function"
        },
        {
            "inputs": [],
            "name": "startNextRound",
            "outputs": [],
            "stateMutability": "nonpayable",
            "type": "function"
        },
        {
            "inputs": [],
            "name": "winnerAddress",
            "outputs": [
                {
                    "internalType": "address payable",
                    "name": "",
                    "type": "address"
                }
            ],
            "stateMutability": "view",
            "type": "function"
        },
        {
            "inputs": [],
            "name": "withdraw",
            "outputs": [],
            "stateMutability": "nonpayable",
            "type": "function"
        }
    ],
    "bytecode": "0x60806040526000600460006101000a81548160ff021916908360ff1602179055506000600460156101000a81548160ff02191690831515021790555034801561004757600080fd5b50336000806101000a81548173ffffffffffffffffffffffffffffffffffffffff021916908373ffffffffffffffffffffffffffffffffffffffff1602179055506113ce806100976000396000f3fe6080604052600436106100a75760003560e01c80637d22e0e7116100645780637d22e0e7146101725780638da5cb5b1461019d578063d4f77b1c146101c8578063d65ab5f2146101d2578063ed7a4e0b146101e9578063f71d96cb14610214576100a7565b80632b65e040146100ac578063302bcc57146100d75780633c3ccc44146101025780633ccfd60b146101195780634311de8f146101305780635e123ce414610147575b600080fd5b3480156100b857600080fd5b506100c1610251565b6040516100ce9190610bdc565b60405180910390f35b3480156100e357600080fd5b506100ec610257565b6040516100f99190610c13565b60405180910390f35b34801561010e57600080fd5b5061011761026a565b005b34801561012557600080fd5b5061012e6104d2565b005b34801561013c57600080fd5b50610145610623565b005b34801561015357600080fd5b5061015c610769565b6040516101699190610c49565b60405180910390f35b34801561017e57600080fd5b5061018761077c565b6040516101949190610bdc565b60405180910390f35b3480156101a957600080fd5b506101b2610782565b6040516101bf9190610ca5565b60405180910390f35b6101d06107a6565b005b3480156101de57600080fd5b506101e7610a13565b005b3480156101f557600080fd5b506101fe610ad4565b60405161020b9190610ca5565b60405180910390f35b34801561022057600080fd5b5061023b60048036038101906102369190610cf1565b610afa565b6040516102489190610ca5565b60405180910390f35b60015481565b600460009054906101000a900460ff1681565b600460159054906101000a900460ff166102b9576040517f08c379a00000000000000000000000000000000000000000000000000000000081526004016102b090610d7b565b60405180910390fd5b6002544310156102fe576040517f08c379a00000000000000000000000000000000000000000000000000000000081526004016102f590610de7565b60405180910390fd5b6000600460009054906101000a900460ff1660ff166001436103209190610e36565b4060001c61032e9190610e99565b90507f8df4311c8b963d8ded1bf626197687e30c69839e7686736039134207fe5cc734600360008360ff16815260200190815260200160002060009054906101000a900473ffffffffffffffffffffffffffffffffffffffff166000604051610398929190610f29565b60405180910390a16001600460009054906101000a900460ff1660ff16111561049257600360006004600081819054906101000a900460ff166103da90610f52565b91906101000a81548160ff021916908360ff160217905560ff16815260200190815260200160002060009054906101000a900473ffffffffffffffffffffffffffffffffffffffff16600360008360ff16815260200190815260200160002060006101000a81548173ffffffffffffffffffffffffffffffffffffffff021916908373ffffffffffffffffffffffffffffffffffffffff160217905550600360ff16436104879190610f7c565b6002819055506104cf565b6104ce6003600080815260200190815260200160002060009054906101000a900473ffffffffffffffffffffffffffffffffffffffff16610b2d565b5b50565b600460019054906101000a900473ffffffffffffffffffffffffffffffffffffffff1673ffffffffffffffffffffffffffffffffffffffff163373ffffffffffffffffffffffffffffffffffffffff1614610562576040517f08c379a00000000000000000000000000000000000000000000000000000000081526004016105599061101e565b60405180910390fd5b6000600154476105729190610e36565b9050600081116105b7576040517f08c379a00000000000000000000000000000000000000000000000000000000081526004016105ae9061108a565b60405180910390fd5b600460019054906101000a900473ffffffffffffffffffffffffffffffffffffffff1673ffffffffffffffffffffffffffffffffffffffff166108fc829081150290604051600060405180830381858888f1935050505015801561061f573d6000803e3d6000fd5b5050565b60008054906101000a900473ffffffffffffffffffffffffffffffffffffffff1673ffffffffffffffffffffffffffffffffffffffff163373ffffffffffffffffffffffffffffffffffffffff16146106b1576040517f08c379a00000000000000000000000000000000000000000000000000000000081526004016106a8906110f6565b60405180910390fd5b6000600154116106f6576040517f08c379a00000000000000000000000000000000000000000000000000000000081526004016106ed90611162565b60405180910390fd5b60008054906101000a900473ffffffffffffffffffffffffffffffffffffffff1673ffffffffffffffffffffffffffffffffffffffff166108fc6001549081150290604051600060405180830381858888f1935050505015801561075e573d6000803e3d6000fd5b506000600181905550565b600460159054906101000a900460ff1681565b60025481565b60008054906101000a900473ffffffffffffffffffffffffffffffffffffffff1681565b60001515600460159054906101000a900460ff161515146107fc576040517f08c379a00000000000000000000000000000000000000000000000000000000081526004016107f3906111ce565b60405180910390fd5b67016345785d8a00003414610846576040517f08c379a000000000000000000000000000000000000000000000000000000000815260040161083d9061123a565b60405180910390fd5b3373ffffffffffffffffffffffffffffffffffffffff1660036000600460009054906101000a900460ff1660ff16815260200190815260200160002060009054906101000a900473ffffffffffffffffffffffffffffffffffffffff1673ffffffffffffffffffffffffffffffffffffffff1614156108fa576040517f08c379a00000000000000000000000000000000000000000000000000000000081526004016108f1906112a6565b60405180910390fd5b662386f26fc10000600160008282546109139190610f7c565b925050819055503360036000600460009054906101000a900460ff1660ff16815260200190815260200160002060006101000a81548173ffffffffffffffffffffffffffffffffffffffff021916908373ffffffffffffffffffffffffffffffffffffffff1602179055506004600081819054906101000a900460ff168092919061099d906112c6565b91906101000a81548160ff021916908360ff160217905550507f31e760aa525306aba638a784082a013b6a1cc0a9a1789f3f22281c0453b10b1f336040516109e59190611311565b60405180910390a16008600460009054906101000a900460ff1660ff161415610a1157610a10610a13565b5b565b6002600460009054906101000a900460ff1660ff161015610a69576040517f08c379a0000000000000000000000000000000000000000000000000000000008152600401610a6090611378565b60405180910390fd5b6001600460156101000a81548160ff021916908315150217905550600360ff1643610a949190610f7c565b6002819055507f898a393a858c3e53a0c17028b22a4244ad013a6a5432ead1ba081e13f40531996001604051610aca9190610c49565b60405180910390a1565b600460019054906101000a900473ffffffffffffffffffffffffffffffffffffffff1681565b60036020528060005260406000206000915054906101000a900473ffffffffffffffffffffffffffffffffffffffff1681565b6000600460156101000a81548160ff02191690831515021790555080600460016101000a81548173ffffffffffffffffffffffffffffffffffffffff021916908373ffffffffffffffffffffffffffffffffffffffff1602179055507f1728dd43546edd06fabfe796e5b641a151aa90998bfd1b1ec0ae98c6e770845981604051610bb89190611311565b60405180910390a150565b6000819050919050565b610bd681610bc3565b82525050565b6000602082019050610bf16000830184610bcd565b92915050565b600060ff82169050919050565b610c0d81610bf7565b82525050565b6000602082019050610c286000830184610c04565b92915050565b60008115159050919050565b610c4381610c2e565b82525050565b6000602082019050610c5e6000830184610c3a565b92915050565b600073ffffffffffffffffffffffffffffffffffffffff82169050919050565b6000610c8f82610c64565b9050919050565b610c9f81610c84565b82525050565b6000602082019050610cba6000830184610c96565b92915050565b600080fd5b610cce81610bc3565b8114610cd957600080fd5b50565b600081359050610ceb81610cc5565b92915050565b600060208284031215610d0757610d06610cc0565b5b6000610d1584828501610cdc565b91505092915050565b600082825260208201905092915050565b7f47616d65206861736e2774207374617274656400000000000000000000000000600082015250565b6000610d65601383610d1e565b9150610d7082610d2f565b602082019050919050565b60006020820190508181036000830152610d9481610d58565b9050919050565b7f43616e2774207374617274206e657720726f756e642079657400000000000000600082015250565b6000610dd1601983610d1e565b9150610ddc82610d9b565b602082019050919050565b60006020820190508181036000830152610e0081610dc4565b9050919050565b7f4e487b7100000000000000000000000000000000000000000000000000000000600052601160045260246000fd5b6000610e4182610bc3565b9150610e4c83610bc3565b925082821015610e5f57610e5e610e07565b5b828203905092915050565b7f4e487b7100000000000000000000000000000000000000000000000000000000600052601260045260246000fd5b6000610ea482610bc3565b9150610eaf83610bc3565b925082610ebf57610ebe610e6a565b5b828206905092915050565b6000819050919050565b6000610eef610eea610ee584610c64565b610eca565b610c64565b9050919050565b6000610f0182610ed4565b9050919050565b6000610f1382610ef6565b9050919050565b610f2381610f08565b82525050565b6000604082019050610f3e6000830185610f1a565b610f4b6020830184610c3a565b9392505050565b6000610f5d82610bf7565b91506000821415610f7157610f70610e07565b5b600182039050919050565b6000610f8782610bc3565b9150610f9283610bc3565b9250827fffffffffffffffffffffffffffffffffffffffffffffffffffffffffffffffff03821115610fc757610fc6610e07565b5b828201905092915050565b7f4f6e6c792077696e6e65722063616e2077697468647261770000000000000000600082015250565b6000611008601883610d1e565b915061101382610fd2565b602082019050919050565b6000602082019050818103600083015261103781610ffb565b9050919050565b7f4e6f207072697a6520746f207769746864726177000000000000000000000000600082015250565b6000611074601483610d1e565b915061107f8261103e565b602082019050919050565b600060208201905081810360008301526110a381611067565b9050919050565b7f4f6e6c79206f776e65722063616e207769746864726177000000000000000000600082015250565b60006110e0601783610d1e565b91506110eb826110aa565b602082019050919050565b6000602082019050818103600083015261110f816110d3565b9050919050565b7f4e6f206f776e657220706f6f6c20746f20776974686472617700000000000000600082015250565b600061114c601983610d1e565b915061115782611116565b602082019050919050565b6000602082019050818103600083015261117b8161113f565b9050919050565b7f47616d6520616c72656164792073746172746564000000000000000000000000600082015250565b60006111b8601483610d1e565b91506111c382611182565b602082019050919050565b600060208201905081810360008301526111e7816111ab565b9050919050565b7f496e73756666696369656e742062657420616d6f756e74000000000000000000600082015250565b6000611224601783610d1e565b915061122f826111ee565b602082019050919050565b6000602082019050818103600083015261125381611217565b9050919050565b7f4164647265737320616c7265616479206a6f696e6564207468652067616d6500600082015250565b6000611290601f83610d1e565b915061129b8261125a565b602082019050919050565b600060208201905081810360008301526112bf81611283565b9050919050565b60006112d182610bf7565b915060ff8214156112e5576112e4610e07565b5b600182019050919050565b60006112fb82610c64565b9050919050565b61130b816112f0565b82525050565b60006020820190506113266000830184611302565b92915050565b7f4e6f7420656e6f75676820706c61796572730000000000000000000000000000600082015250565b6000611362601283610d1e565b915061136d8261132c565b602082019050919050565b6000602082019050818103600083015261139181611355565b905091905056fea2646970667358221220404fad907e7b7e1dbcbbbf6c276f3916f43074c7b4d56f50890dcf9c03beec5e64736f6c63430008090033",
    "linkReferences": {},
    "deployedLinkReferences": {}
}